S0100000696E746572666F6E2E73726563AF
S11300000C9432000C944F000C944F000C944F004D
S11300100C944F000C944F000C944F000C944F0020
S11300200C944F000C944F000C944F000C944F0010
S11300300C944F000C944F000C944F000C944F0000
S11300400C944F000C944F000C944F000C944F00F0
S11300500C944F00C400D400F1003C01FC000B01DF
S11300601A01470111241FBECFE5D4E0DEBFCDBF86
S113007010E0A0E6B0E0E8E4F4E002C005900D92E0
S1130080A63BB107D9F720E0A6EBB0E001C01D9272
S1130090A73BB207E1F70E949A000C9422020C9449
S11300A00000CF93DF93CDB7DEB761970FB6F89416
S11300B0DEBF0FBECDBF81E1E1E6F0E0DE011196C7
S11300C001900D928A95E1F780E18ABB80E20BC032
S11300D08AE08A95F1F700C089B380958F7031F476
S11300E09AB3990F9ABB9AB39111F2CF8823C1F0B6
S11300F09AB320E002C02F5F969594FFFCCF90E066
S113010002C09F5F869580FFFCCF220F220F920FC3
S1130110E1E0F0E0EC0FFD1FE90FF11D808101C06B
S11301208FE761960FB6F894DEBF0FBECDBFDF91A7
S1130130CF910895C090B100B090B200A090B300E8
S11301400E94AE011BBAD0E0C0E010E00F2EFFE722
S1130150FF2EF02DC43689F40E9451008F3731F000
S11301602FE7F21631F0F82EC0E007C0F82EC0E0F9
S113017004C0082FF82EC0E011E08D2F90E0FC01A0
S1130180E65DFF4F0C941C020E94E50182E790E0BB
S11301900E940F0261E082E00E94F00180E890E09A
S11301A00E940F02D1E088C0112309F485C00334F2
S11301B039F40E94E5018EE890E00E940F02D4E039
S11301C08FEC800F883008F06DC00E94E50183E950
S11301D090E00E940F02802F0E940602D2E010E0FD
S11301E06BC08FEF91E12AE7815090402040E1F706
S11301F000C00000D0E060C0112309F45DC080EDB0
S1130200800F8A3008F050C0E02E8AE20E94060275
S1130210D5E010E051C0112309F44EC080ED800FE9
S11302208A3008F044C0D02E8AE20E940602D6E04A
S113023010E042C0112309F43FC080ED800F8A30E2
S1130240C8F58AE20E940602EC100DC0DB100BC058
S11302500A1109C00E94E5018BE990E00E940F0297
S1130260D3E010E029C00E94E50184EA90E00E94F6
S11302700F02D7E010E020C08FEF91E12AE7815010
S113028090402040E1F700C00000D0E015C08FEF9F
S113029091E12AE7815090402040E1F700C000003E
S11302A0D0E00AC010E008C0D0E010E005C0D0E003
S11302B010E002C0D0E010E0CF5F4CCF962F9295B3
S11302C09F7092BB811104C082B38F7E82BB03C036
S11302D082B3806182BB8091B6008F5F8093B60049
S11302E082B3806282BB8091B6008F5F8093B60038
S11302F08091B6008F5F8093B60082B38F7D82BBFE
S11303008091B6008F5F8093B6008091600088234F
S113031019F010926000089582B3807F82BB82B38B
S11303206F70682B62BB8091B6008F5F8093B600BC
S113033082B3806282BB8091B6008F5F8093B600E7
S11303408091B6008F5F8093B60082B38F7D82BBAD
S11303508091B6008F5F8093B600089512BA8FEF34
S113036081BB2FEF89E698E1215080409040E1F76E
S113037000C000006CE280E00E945E0125E82A953E
S1130380F1F700006CE280E00E945E0185E88A9546
S1130390F1F700006EE080E00E945E0195E89A9516
S11303A0F1F7000066E080E00E945E0125E82A95EE
S11303B0F1F7000061E080E00E945E018FE697E1C2
S11303C00197F1F700C00000089561E080E00E9409
S11303D05E018FE99FE00197F1F700C000000895E6
S11303E08150823090F4662381F0613170F490E0A2
S11303F00296615020E4829F600D112480E00E94E7
S11304005E0185E88A95F1F700000895682F81E080
S11304100E945E0185E88A95F1F700000895CF9364
S1130420DF93EC0103C021960E94060288818111AA
S1130430FACFDF91CF910895EE0FFF1F0590F4914D
S10B0440E02D0994F894FFCFAC
S1130448013132334134353642373839432A30237F
S1130458440053756E61206C6120312E2E382C00B7
S1130468432070656E74727520636F643A00436F3D
S1130478643D0053756E206C6120004465736368A5
S113048869732100436F6420696E76616C69642125
S1090498003132330000C4
S9030000FC
